:100000000C942A000C9447000C9447000C94470071
:100010000C9447000C946A090C9447000C94470018
:100020000C9447000C9447000C9447000C9444092E
:100030000C9447000C9447000C9447000C94470024
:100040000C948C000C9447000C9447000C944700CF
:100050000C94470011241FBECFE5D8E0DEBFCDBF12
:1000600011E0A0E6B0E0E2EEF3E102C005900D92EF
:10007000A23AB107D9F721E0A2EAB1E001C01D928E
:10008000A73BB207E1F70E94BF040C94EF090C9460
:100090000000833038F5813089F048F08230A1F4D7
:1000A00087B1806487B987B1806887B90DC087B18F
:1000B0008F7B87B987B18F7787B906C087B1806496
:1000C00087B987B18F7787B986B1887F86B968305D
:1000D00058F4677086B1682B66B986B1806886B9B6
:1000E00082E0089580E0089581E00895789497B1C2
:1000F000907E97B9883070F497B1907E97B997B198
:10010000892B87B986B1806486B986B1886086B943
:1001100085E0089589E008951F920F920FB60F921F
:1001200011242F933F934F935F936F937F938F93FC
:100130009F93AF93BF9324B135B144E6429FC00172
:10014000439F900D11246FEF73E00E949309709309
:10015000AB016093AA01BF91AF919F918F917F9165
:100160006F915F914F913F912F910F900FBE0F9024
:100170001F901895823048F4811109C041E066E073
:1001800082E00E94570180E0089581E0089581E0B7
:100190000895823048F4811109C040E066E082E0B1
:1001A0000E94570180E0089581E0089581E008955C
:1001B0004423D9F1413009F074C0813091F028F026
:1001C0008230D9F0833029F16EC02AB381E090E00B
:1001D00002C0880F991F6A95E2F7822B8ABB80E0E4
:1001E000089527B381E090E002C0880F991F6A95B7
:1001F000E2F7822B87BB80E0089524B381E090E092
:1002000002C0880F991F6A95E2F7822B84BB80E0B9
:10021000089521B381E090E002C0880F991F6A958C
:10022000E2F7822B81BB80E00895813099F028F0BD
:100230008230E9F0833041F138C02AB381E090E0A8
:1002400002C0880F991F6A95E2F7809582238ABBC6
:1002500081E0089527B381E090E002C0880F991FE4
:100260006A95E2F78095822387BB81E0089524B3E5
:1002700081E090E002C0880F991F6A95E2F78095AF
:10028000822384BB81E0089521B381E090E002C025
:10029000880F991F6A95E2F78095822381BB81E0E0
:1002A000089581E0089581E0089581E00895853002
:1002B00008F07FC0693008F07EC0433008F07DC090
:1002C0004423D9F1413009F07AC0813091F028F00F
:1002D0008230D9F0833029F174C02BB381E090E0F3
:1002E00002C0880F991F6A95E2F7822B8BBB80E0D2
:1002F000089528B381E090E002C0880F991F6A95A5
:10030000E2F7822B88BB80E0089525B381E090E07E
:1003100002C0880F991F6A95E2F7822B85BB80E0A7
:10032000089522B381E090E002C0880F991F6A957A
:10033000E2F7822B82BB80E00895813099F028F0AB
:100340008230E9F0833041F13EC02BB381E090E090
:1003500002C0880F991F6A95E2F7809582238BBBB4
:1003600081E0089528B381E090E002C0880F991FD2
:100370006A95E2F78095822388BB81E0089525B3D2
:1003800081E090E002C0880F991F6A95E2F780959E
:10039000822385BB81E0089522B381E090E002C012
:1003A000880F991F6A95E2F78095822382BB81E0CE
:1003B000089581E0089581E0089581E0089581E045
:1003C000089581E0089581E00895853008F05BC0CC
:1003D000693008F05AC08130D1F028F0823059F1EC
:1003E0008330E9F154C089B390E0062E02C09595A0
:1003F00087950A94E2F78170FA01808389B390E0CF
:1004000002C0959587956A95E2F78170089586B345
:1004100090E0062E02C0959587950A94E2F78170C8
:10042000FA01808386B390E002C0959587956A951E
:10043000E2F78170089583B390E0062E02C095958F
:1004400087950A94E2F78170FA01808383B390E084
:1004500002C0959587956A95E2F78170089580B3FB
:1004600090E0062E02C0959587950A94E2F7817078
:10047000FA01808383B390E002C0959587956A95D1
:10048000E2F78170089581E0089581E0089581E0A8
:100490000895853020F4693020F081E0089581E0EE
:1004A000089580E0089540E067E083E00E94D8006E
:1004B00040E066E083E00E94D80040E065E083E031
:1004C0000E94D80040E063E083E00E94D80040E052
:1004D00065E082E00E94D80040E064E082E00E9493
:1004E000D80040E063E082E00E94D80040E062E093
:1004F00082E00E94D80065E082E00E94490264E048
:1005000082E00E94490263E082E00E94490262E0C8
:1005100082E00E9449020895AF92BF92CF92DF928B
:10052000EF92FF920F931F93CF93DF931F92CDB75C
:10053000DEB7B12C4AC0CB2CD12CF601E159FF4FCC
:10054000A08041E06A2D82E00E94D80040E06A2D40
:1005500082E00E94570110E030C0E12EF12CF7013B
:10056000ED58FF4F0081AE014F5F5F4F602F83E07A
:100570000E94E501898181111FC007C0AE014F5F54
:100580005F4F602F83E00E94E50189818823B1F3EA
:1005900040E06A2D82E00E94D800C601880F991FB2
:1005A000880F991F89589F4FFC01EE0DFF1D808118
:1005B0008093600080E00EC01F5F143070F240E056
:1005C0006A2D82E00E94D800B39483E08B1508F076
:1005D000B2CF81E00F90DF91CF911F910F91FF90EB
:1005E000EF90DF90CF90BF90AF900895CF93C82F3A
:1005F00040E063E080E00E9457018FE99FE00197AF
:10060000F1F700C00000C4FB442740F960E081E03E
:100610000E945701C5FB442740F961E081E00E9438
:100620005701C6FB442740F962E081E00E94570170
:100630004C2F441F4427441F64E081E00E9457016F
:100640008FE99FE00197F1F700C0000041E062E010
:1006500080E00E9457018FE99FE00197F1F700C009
:10066000000040E062E080E00E9457018FE99FE0D7
:100670000197F1F700C000004C2F417060E081E06D
:100680000E945701C1FB442740F961E081E00E94CC
:100690005701C2FB442740F962E081E00E94570104
:1006A000C3FB442740F964E081E00E9457018FE9D1
:1006B0009FE00197F1F700C0000041E062E080E0B8
:1006C0000E9457018FE99FE00197F1F700C00000F9
:1006D00040E062E080E00E9457018FE19EE40197D4
:1006E000F1F700C00000CF91089541E063E080E0A1
:1006F0000E94D80041E062E080E00E94D80041E022
:1007000060E081E00E94D80041E061E081E00E9469
:10071000D80041E062E081E00E94D80041E064E05E
:1007200081E00E94D8008FE99FE00197F1F700C0B7
:10073000000088E20E94F6028FE99FE00197F1F73E
:1007400000C0000081E00E94F6028FE99FE001975F
:10075000F1F700C000008FE00E94F6028FE99FE0F1
:100760000197F1F700C000000895CF93C82F41E032
:1007700063E080E00E9457018FE99FE00197F1F765
:1007800000C00000C4FB442740F960E081E00E9403
:100790005701C5FB442740F961E081E00E94570101
:1007A000C6FB442740F962E081E00E9457014C2FCC
:1007B000441F4427441F64E081E00E9457018FE9F1
:1007C0009FE00197F1F700C0000041E062E080E0A7
:1007D0000E9457018FE99FE00197F1F700C00000E8
:1007E00040E062E080E00E9457018FE99FE00197BE
:1007F000F1F700C000004C2F417060E081E00E94E2
:100800005701C1FB442740F961E081E00E94570194
:10081000C2FB442740F962E081E00E945701C3FB1C
:10082000442740F964E081E00E9457018FE99FE08E
:100830000197F1F700C0000041E062E080E00E9413
:1008400057018FE99FE00197F1F700C0000040E0F9
:1008500062E080E00E9457018FE19EE40197F1F78A
:1008600000C00000CF9108950F931F93CF938C0188
:10087000C0E005C00E94B503CF5FC53138F4F80170
:10088000EC0FF11D80818111F5CF01C081E0CF9186
:100890001F910F910895CF93DF9300D000D0CDB773
:1008A000DEB78530B0F46531B0F490E8998390EC10
:1008B0009A8394E99B8394ED9C83E1E0F0E0EC0F54
:1008C000FD1FE80FF11D8081860F0E94F60280E077
:1008D00003C082E001C083E00F900F900F900F9053
:1008E000DF91CF91089581E00E94F60208951F9351
:1008F000CF93DF93CDB7DEB72A970FB6F894DEBF5C
:100900000FBECDBF6115710581059105C1F480E36E
:100910000E94B5032AC02AE030E040E050E00E9487
:10092000A709E1E0F0E0EC0FFD1FE10FF11D605DB4
:1009300060831F5F622F732F842F952F01C010E0FB
:10094000611571058105910531F70DC0E12FF0E0CA
:10095000319781E090E08C0F9D1FE80FF91F808197
:100960000E94B50311501111F1CF2A960FB6F894D9
:10097000DEBF0FBECDBFDF91CF911F9108950E94C2
:1009800033080E94C507FDCF8091B2019091B30159
:1009900001969093B3018093B2018091B20190913E
:1009A000B301CE9778F08091A4019091A5010196B2
:1009B0009093A5018093A40186EF84BD1092B301AA
:1009C0001092B2018091A4019091A501CC9768F09A
:1009D0008091A2019091A30101969093A30180932D
:1009E000A2011092A5011092A4010895CF92DF9266
:1009F000EF92FF920F931F93CF93DF93BC01C0E060
:100A0000D0E051C0DA01AA0FBB1FAA0FBB1FA60F6F
:100A1000B71F12968C911297FA013196EE0FFF1FB5
:100A2000EE0FFF1FE60FF71F928189179CF40D91BF
:100A30001D912D913C911397C080D180E280F3806D
:100A4000CD92DD92ED92FC92139700831183228365
:100A500033831AC0891318C013969C91139783810E
:100A6000981794F40D911D912D913C911397C0808E
:100A7000D180E280F380CD92DD92ED92FC921397CB
:100A800000831183228333834F5F5F4F02C040E0B6
:100A900050E02091B40130E02C1B3D0B421753076E
:100AA0000CF4B0CF21968091B40190E0C817D9071B
:100AB00074F3DF91CF911F910F91FF90EF90DF9032
:100AC000CF9008950F931F93CF93DF93CDB7DEB7E9
:100AD00028970FB6F894DEBF0FBECDBF1A821982D9
:100AE000FE01339686E0DF011D928A95E9F7809139
:100AF000B401833040F00E94730487E890E00E94C4
:100B0000340480E0B3C060E080E00E944B0483E9DD
:100B100090E00E94340467E081E00E944B0486EA82
:100B200090E00E94340467E081E00E944B04009151
:100B3000600010E01EC00E948C028111FCCF009169
:100B40006000E3E0F0E0EC0FFD1FE10FF11D00831A
:100B5000802F0E94B5031F5F123021F46AE081E00C
:100B60000E944B04153028F067E081E00E944B049E
:100B700010E00D3301F78B8189838C818A83CE014C
:100B800001960E94C909992304F1CE0101960E94A1
:100B9000C909CC97D4F40091B40110E0CE010196BC
:100BA0000E94C909000F111F000F111FF801ED5914
:100BB000FF4F81838D8189838E818A83CE01019647
:100BC0000E94C90999235CF448C060E083E00E9458
:100BD0004B048CEA90E00E94340480E047C0CE01D0
:100BE00001960E94C909CC97C4F50091B40110E0A8
:100BF000CE0101960E94C909F801EE0FFF1FEE0F0A
:100C0000FF1FED59FF4F80838091B401E82FF0E082
:100C1000EE0FFF1FEE0FFF1FED59FF4F9181209147
:100C2000A2013091A301290F228390812091A40178
:100C30003091A501290F23838F5F8093B40160E079
:100C400083E00E944B0484EB90E00E94340483E62E
:100C500090E00E94F60481E009C060E083E00E9419
:100C60004B048CEA90E00E94340480E028960FB692
:100C7000F894DEBF0FBECDBFDF91CF911F910F91D2
:100C800008959FEF980F9330C8F4E82FF0E0319764
:100C9000EE0FFF1FEE0FFF1FED59FF4F8FEF818308
:100CA00080838383828383E690E00E94F6048091B0
:100CB000B40181508093B40182E0089583E00895E7
:100CC00080E00E94760060E083E00E944B04609127
:100CD000AA017091AB0180E090E00E9477048091BE
:100CE000AA019091AB01C39710F081E0089580E0D4
:100CF0000895CF930E94730460E080E00E944B044B
:100D00008CEB90E00E94340460E082E00E944B048F
:100D100081ED90E00E943404C2E010C00E946006A1
:100D2000811105C08C2F0E944109CF5F07C00E942E
:100D3000730486EE90E00E94340466C0CD3F70F3E9
:100D400060E082E00E944B048CEF90E00E9434044B
:100D500060E082E00E944B0481E191E00E94340453
:100D60008091A4019091A501C7E0C80F15C08091A2
:100D7000A4019091A501681B790B80E090E00E948E
:100D800077040E946006882339F00E94730486EE7F
:100D900090E00E94340438C06C2F70E08091A40170
:100DA0009091A5016817790710F360E082E00E9436
:100DB0004B048CEF90E00E94340460E082E00E94DB
:100DC0004B0489E291E00E94340480E00E94BA0062
:100DD0000E9460068823E1F38091A4019091A5010F
:100DE00047E0480F842F90E02091A4013091A501A5
:100DF00082179307B8F380E00E94C9000E94730431
:100E000086EE90E00E943404CF91089580E0A0E047
:100E100090E02EC0482F50E0FA01EE0FFF1FEE0FBA
:100E2000FF1FED59FF4F2281022E000C330B609102
:100E3000A2017091A30126173707A9F4440F551F8B
:100E4000440F551FFA01ED59FF4F2381022E000C6C
:100E5000330B4091A4015091A5012417350729F4C3
:100E6000A1E091E004C090E002C0A0E091E08F5FBB
:100E7000833080F2913049F4A13039F481E00E944E
:100E8000410681E080936100089585E080936100D0
:100E900008950E94730460E080E00E944B048EE39A
:100EA00091E00E94340460E081E00E944B0483E5FD
:100EB00091E00E94340460E082E00E944B0482E6EC
:100EC00091E00E94340460E083E00E944B0484E7D8
:100ED00091E00E94340463E183E00E944B04089592
:100EE000FF920F931F93CF93DF930E94730486E8C2
:100EF00091E00E943404C0E0D0E031C0FC2EF394B5
:100F000060E08F2D0E944B048E010F5F1F4FB801D0
:100F1000012E000C880B990B0E9477048DE20E9431
:100F2000B50363E08F2D0E944B04CC0FDD1FCC0F67
:100F3000DD1FCD59DF4F6A81062E000C770B880B21
:100F4000990B0E9477048AE30E94B5036B81062EF9
:100F5000000C770B880B990B0E947704E8018091B5
:100F6000B40190E0C817D9074CF26EE083E00E940C
:100F70004B048AE991E00E94340410926200DF91F0
:100F8000CF911F910F91FF90089580916200813061
:100F9000A1F40E94060780916100813011F40E9443
:100FA00079060E9449070E948C028091600096EDAC
:100FB000980F923010F08D3261F70E9473040E94F6
:100FC0008C0280916000803319F491E0909362006C
:100FD0008B3229F08D3271F08A32E1F531C00E94F6
:100FE00062050E94060780916100813099F50E9498
:100FF000790630C085E7809360000E948C02809162
:1010000060008537D1F3813321F481E00E944106ED
:101010000BC0823321F482E00E94410605C0833375
:1010200019F483E00E94410685E7809360000E94E6
:10103000060780916100813069F40E9479060AC038
:101040000E9470070E94060780916100813011F4B0
:101050000E9479060E94060780916100813011F498
:101060000E9479060895CF93DF9300D000D000D07E
:10107000CDB7DEB70E94750341E063E081E00E94D6
:10108000D800CE01019626E0FC0111922A95E9F7DD
:1010900027E02A8327EF2B830E9472080E945302C5
:1010A00067E081E00E944900ECEAF1E085E080839E
:1010B00083E08183128282E0838315821482CF01D0
:1010C0000E94D80884EC94E00E9465098FB780687C
:1010D0008FBF26960FB6F894DEBF0FBECDBFDF914F
:1010E000CF910895FC0195B59F7795BD2081223061
:1010F00028F0293019F0283009F053C085B530E0C8
:10110000220F331F220F331F220F331F877B282B01
:1011100025BD8181883008F040C095B5987F892B26
:1011200085BD8081811106C0828184BD89B78064BC
:1011300089BF39C08130B9F48481843080F425B509
:1011400030E1839FC0011124922F9F7C892B85BDA4
:1011500014BC838183BD89B7806889BF24C082E0C5
:101160008093B60120C08930F1F48581843088F401
:1011700025B530E1839FC0011124922F9F7C892BDC
:1011800085BD14BC13BC828184BD89B7806489BFCE
:101190000AC083E08093B60106C081E08093B60167
:1011A00002C01092B6018091B601811181E00895CC
:1011B000FC018081873008F05CC08181853008F0B7
:1011C0005AC09281943008F058C09381953008F04D
:1011D00056C0813039F180F0823019F08330B9F097
:1011E0002CC083B7886083BF83B78F7B83BF83B7EF
:1011F000806883BF80E022C083B78F7B83BF83B7C3
:10120000877F83BF83B7806883BF80E017C083B7C1
:10121000886083BF83B7806483BF83B78F7783BFC2
:1012200080E00CC083B7877F83BF83B7806483BFB0
:1012300083B78F7783BF80E001C081E095819CBF39
:1012400023B79081922B93BF43B7938150E1959F31
:1012500090011124242B23BF9281992329F07894A3
:1012600029B79281922B99BF22B79481922B92BF7A
:10127000089581E0089581E0089581E0089581E076
:1012800008958CBF80E008951F920F920FB60F92C1
:1012900011248F939F938091A6019091A7010196AD
:1012A0009093A7018093A6014F9741F49BB380E2EE
:1012B00089278BBB1092A7011092A6019F918F9155
:1012C0000F900FBE0F901F9018959093A9018093D7
:1012D000A80108951F920F920FB60F9211242F9319
:1012E0003F934F935F936F937F938F939F93AF93AE
:1012F000BF93EF93FF93E091A801F091A90130977C
:1013000009F00995FF91EF91BF91AF919F918F9156
:101310007F916F915F914F913F912F910F900FBEF1
:101320000F901F901895AA1BBB1B51E107C0AA1F65
:10133000BB1FA617B70710F0A61BB70B881F991F76
:101340005A95A9F780959095BC01CD010895A1E229
:101350001A2EAA1BBB1BFD010DC0AA1FBB1FEE1F2F
:10136000FF1FA217B307E407F50720F0A21BB30B7A
:10137000E40BF50B661F771F881F991F1A9469F7F6
:1013800060957095809590959B01AC01BD01CF0152
:101390000895FC0188279927E89421912032E9F3E8
:1013A000293010F02E30C8F32B3241F02D3239F4B1
:1013B000689404C00E94E709820F911D2191205377
:1013C0002A30C0F31EF4909581959F4F08957AE0DE
:1013D000979F902D879F802D910D11240895F8944B
:0213E000FFCF3D
:1013E200750501FFFFFFFFFFFFFFFFFFFFFFFF0587
:1013F200040302070605033132332B3435362D3709
:1014020038392A4030233D74696D657273206675E0
:101412006C6C00456E74657220616C61726D207433
:10142200696D65203A0030303A303000696E76617D
:101432006C696400737563636573730020202020F8
:1014420020414C41524D2054494D4520202020201E
:10145200004C6967687420627269676874656E69B6
:101462006E672E2E2E0020202020476F6F64204DA5
:101472006F726E696E6720202020200020202020BD
:10148200202020202020202020202020202020205A
:101492000042757A7A65722077696C6C2074757275
:1014A2006E206F6E20696E200020202020202042B6
:1014B200757A7A6572204F6E20202020200020202D
:1014C2002053756E7269736520416C61726D2020C4
:1014D200202000202B203A2053657420416C617239
:1014E2006D00202D203A2043616E63656C20416CB3
:1014F20061726D00202A203A2053686F7720416C78
:1015020061726D7320005468652072756E6E696E2B
:10151200672074696D6572733A00303A4261636B99
:021522000000C7
:00000001FF
