S015000053756E726973655F616C61726D2E73726563BA
S11300000C942A000C9447000C9447000C9447006D
S11300100C9447000C9465090C9447000C94470019
S11300200C9447000C9447000C9447000C943F092F
S11300300C9447000C9447000C9447000C94470020
S11300400C94C4060C9447000C9447000C9447008D
S11300500C94470011241FBECFE5D8E0DEBFCDBF0E
S113006011E0A0E6B0E0E8EDF3E102C005900D92E6
S1130070A23AB107D9F721E0A2EAB1E001C01D928A
S1130080A73BB207E1F70E947C060C94EA090C94A2
S113009000008091B0019091B10101969093B1015B
S11300A08093B0018091B0019091B101CE9778F026
S11300B08091A4019091A50101969093A50180934C
S11300C0A40186EF84BD1092B1011092B001809119
S11300D0A4019091A501CC9768F08091A201909120
S11300E0A30101969093A3018093A2011092A5010C
S11300F01092A4010895CF92DF92EF92FF920F9392
S11301001F93CF93DF93BC01C0E0D0E051C0DA016C
S1130110AA0FBB1FAA0FBB1FA60FB71F12968C9165
S11301201297FA013196EE0FFF1FEE0FFF1FE60F35
S1130130F71F928189179CF40D911D912D913C918B
S11301401397C080D180E280F380CD92DD92ED924E
S1130150FC92139700831183228333831AC089137B
S113016018C013969C9113978381981794F40D915A
S11301701D912D913C911397C080D180E280F38032
S1130180CD92DD92ED92FC9213970083118322832A
S113019033834F5F5F4F02C040E050E02091B201D3
S11301A030E02C1B3D0B421753070CF4B0CF2196C3
S11301B08091B20190E0C817D90774F3DF91CF9111
S11301C01F910F91FF90EF90DF90CF900895FF92D1
S11301D00F931F93CF93DF93CDB7DEB728970FB656
S11301E0F894DEBF0FBECDBF1A821982FE0133968A
S11301F086E0DF011D928A95E9F78091B201833090
S113020040F00E9430068FE690E00E94F10580E005
S1130210A7C060E080E00E9408068BE790E00E949F
S1130220F10567E081E00E9408068EE890E00E94F4
S1130230F10567E081E00E94080600916E0010E07D
S11302401EC00E9449048111FCCF00916E00E3E0BE
S1130250F0E0EC0FFD1FE10FF11D0083802F0E94E1
S113026072051F5F123021F46AE081E00E940806E3
S1130270153028F067E081E00E94080610E00D3395
S113028001F78B8189838C818A83CE0101960E9438
S1130290C4099923D4F08C339105BCF4F090B201D5
S11302A00F2D10E0F801EE0FFF1FEE0FFF1FEE59A8
S11302B0FF4F81838D8189838E818A83CE0101964C
S11302C00E94C40999235CF425C060E083E00E9485
S11302D0080684E990E00E94F10580E041C08C3377
S11302E09105C4F4F801EE0FFF1FEE0FFF1FEE5946
S11302F0FF4F808391812091A2013091A301290FA6
S113030022832091A4013091A501820F83838D3330
S11303105CF416C060E083E00E94080684E990E083
S11303200E94F10580E01CC0F801EE0FFF1FEE0FE4
S1130330FF1FEE59FF4F8C53838382818F5F82832B
S1130340F394F092B20160E083E00E9408068CE925
S113035090E00E94F10582E690E00E947B0081E03B
S113036028960FB6F894DEBF0FBECDBFDF91CF91B4
S11303701F910F91FF9008959FEF980F9330C8F449
S1130380E82FF0E03197EE0FFF1FEE0FFF1FEE593D
S1130390FF4F8FEF818380838383828382E690E0A3
S11303A00E947B008091B20181508093B20182E06F
S11303B0089583E0089580E00E94AE0660E083E043
S11303C00E9408066091B3017091B40180E090E04E
S11303D00E9434068091B3019091B401C39710F048
S11303E081E0089580E00895CF930E94300660E094
S11303F080E00E94080684EA90E00E94F10560E033
S113040082E00E94080689EB90E00E94F105C2E0B8
S113041010C00E94DB01811105C08C2F0E943C0991
S1130420CF5F07C00E9430068EEC90E00E94F10579
S113043066C0CD3F70F360E082E00E94080684EE5F
S113044090E00E94F10560E082E00E94080689EFD6
S113045090E00E94F1058091A4019091A501C7E06C
S1130460C80F15C08091A4019091A501681B790B58
S113047080E090E00E9434060E94DB01882339F07A
S11304800E9430068EEC90E00E94F10538C06C2F7B
S113049070E08091A4019091A5016817790710F389
S11304A060E082E00E94080684EE90E00E94F1057C
S11304B060E082E00E94080681E191E00E94F1057B
S11304C080E00E94F2030E94DB018823E1F3809123
S11304D0A4019091A50147E0480F842F90E020915A
S11304E0A4013091A50182179307B8F380E00E941C
S11304F001040E9430068EEC90E00E94F105CF9139
S1130500089580E090E02AC0482F50E0FA01EE0FF1
S1130510FF1FEE0FFF1FEE59FF4F2281022E000C2A
S1130520330B6091A2017091A30126173707A1F440
S1130530440F551F440F551FFA01EE59FF4F2381F5
S1130540022E000C330B4091A4015091A5012417F5
S1130550350741F091E001C090E08F5F8330A0F255
S113056080E002C081E091E0913041F4813031F4C7
S11305700E94BC0181E080936000089585E080932F
S1130580600008950E94300660E080E00E94080642
S113059086E291E00E94F10560E081E00E94080695
S11305A08BE391E00E94F10560E082E00E9408067E
S11305B08AE491E00E94F10560E083E00E9408066D
S11305C08CE591E00E94F10563E183E00E94080656
S11305D00895FF920F931F93CF93DF930E943006E9
S11305E08EE691E00E94F105C0E0D0E031C0FC2E1F
S11305F0F39460E08F2D0E9408068E010F5F1F4F59
S1130600B801012E000C880B990B0E9434068DE270
S11306100E94720563E08F2D0E940806CC0FDD1F37
S1130620CC0FDD1FCE59DF4F6A81062E000C770BED
S1130630880B990B0E9434068AE30E9472056B8131
S1130640062E000C770B880B990B0E943406E801E8
S11306508091B20190E0C817D9074CF26EE083E0B4
S11306600E94080682E891E00E94F1051092610060
S1130670DF91CF911F910F91FF90089580916100B8
S11306808130A1F40E94C2020E9481028091600024
S1130690813011F40E94F4010E94490480916E009B
S11306A096ED980F923010F08D3271F70E9430065B
S11306B080916E00803319F491E0909361008B3245
S11306C031F08D3279F08A3209F044C031C00E9491
S11306D0E7000E948102809160008130D9F50E9478
S11306E0F40138C085E780936E000E94490480912C
S11306F06E008537D1F3813321F481E00E94BC017F
S11307000BC0823321F482E00E94BC0105C0833314
S113071019F483E00E94BC0185E780936E000E9477
S11307208102809160008130A9F40E94F40112C01A
S11307300E94E9020BC00E9449040E948102809138
S11307406000813019F40E94F40104C080916E00AD
S1130750803389F70E94810280916000813011F416
S11307600E94F4010895CF93DF9300D000D000D00D
S1130770CDB7DEB70E94320541E063E081E00E941C
S1130780F206CE01019626E0FC0111922A95E9F7C2
S113079027E02A8327EF2B830E946D080E94100410
S11307A067E081E00E948106EAEAF1E085E0808367
S11307B083E08183128282E0838315821482CF01D5
S11307C00E94D30889E490E00E9460098FB7806892
S11307D08FBF26960FB6F894DEBF0FBECDBFDF9154
S11307E0CF910895823048F4811109C041E066E058
S11307F082E00E94710780E0089581E0089581E01D
S11308000895823048F4811109C040E066E082E036
S11308100E94710780E0089581E0089581E00895C1
S113082040E067E083E00E94F20640E066E083E097
S11308300E94F20640E065E083E00E94F20640E098
S113084063E083E00E94F20640E065E082E00E94FB
S1130850F20640E064E082E00E94F20640E063E0D9
S113086082E00E94F20640E062E082E00E94F2062A
S113087065E082E00E94630864E082E00E9463080D
S113088063E082E00E94630862E082E00E94630801
S11308900895AF92BF92CF92DF92EF92FF920F939F
S11308A01F93CF93DF931F92CDB7DEB7B12C4AC00D
S11308B0CB2CD12CF601E757FE4FA08041E06A2DE6
S11308C082E00E94F20640E06A2D82E00E947107F5
S11308D010E030C0E12EF12CF701E357FE4F008108
S11308E0AE014F5F5F4F602F83E00E94FF07898155
S11308F081111FC007C0AE014F5F5F4F602F83E0BF
S11309000E94FF0789818823B1F340E06A2D82E0C9
S11309100E94F206C601880F991F880F991F8F56EF
S11309209E4FFC01EE0DFF1D808180936E0080E0E0
S11309300EC01F5F143070F240E06A2D82E00E9406
S1130940F206B39483E08B1508F0B2CF81E00F90E8
S1130950DF91CF911F910F91FF90EF90DF90CF9097
S1130960BF90AF900895CF93C82F40E063E080E03C
S11309700E9471078FE99FE00197F1F700C0000022
S1130980C4FB442740F960E081E00E947107C5FB85
S1130990442740F961E081E00E947107C6FB4427C7
S11309A040F962E081E00E9471074C2F441F442704
S11309B0441F64E081E00E9471078FE99FE0019782
S11309C0F1F700C0000041E062E080E00E9471079E
S11309D08FE99FE00197F1F700C0000040E062E07A
S11309E080E00E9471078FE99FE00197F1F700C052
S11309F000004C2F417060E081E00E947107C1FB50
S1130A00442740F961E081E00E947107C2FB44275A
S1130A1040F962E081E00E947107C3FB442740F97A
S1130A2064E081E00E9471078FE99FE00197F1F78C
S1130A3000C0000041E062E080E00E9471078FE99D
S1130A409FE00197F1F700C0000040E062E080E021
S1130A500E9471078FE19EE40197F1F700C0000046
S1130A60CF91089541E063E080E00E94F20641E006
S1130A7062E080E00E94F20641E060E081E00E94D2
S1130A80F20641E061E081E00E94F20641E062E0AA
S1130A9081E00E94F20641E064E081E00E94F206F7
S1130AA08FE99FE00197F1F700C0000088E20E94FF
S1130AB0B3048FE99FE00197F1F700C0000081E0E3
S1130AC00E94B3048FE99FE00197F1F700C0000092
S1130AD08FE00E94B3048FE99FE00197F1F700C013
S1130AE000000895CF93C82F41E063E080E00E94A6
S1130AF071078FE99FE00197F1F700C00000C4FB84
S1130B00442740F960E081E00E947107C5FB442757
S1130B1040F961E081E00E947107C6FB442740F977
S1130B2062E081E00E9471074C2F441F4427441F58
S1130B3064E081E00E9471078FE99FE00197F1F77B
S1130B4000C0000041E062E080E00E9471078FE98C
S1130B509FE00197F1F700C0000040E062E080E010
S1130B600E9471078FE99FE00197F1F700C0000030
S1130B704C2F417060E081E00E947107C1FB442763
S1130B8040F961E081E00E947107C2FB442740F90B
S1130B9062E081E00E947107C3FB442740F964E0EE
S1130BA081E00E9471078FE99FE00197F1F700C08F
S1130BB0000041E062E080E00E9471078FE99FE05D
S1130BC00197F1F700C0000040E062E080E00E947D
S1130BD071078FE19EE40197F1F700C00000CF9107
S1130BE008950F931F93CF938C01C0E005C00E941A
S1130BF07205CF5FC53138F4F801EC0FF11D808127
S1130C008111F5CF01C081E0CF911F910F9108951B
S1130C10CF93DF9300D000D0CDB7DEB78530B0F4EA
S1130C206531B0F490E8998390EC9A8394E99B83BE
S1130C3094ED9C83E1E0F0E0EC0FFD1FE80FF11D63
S1130C408081860F0E94B30480E003C082E001C06B
S1130C5083E00F900F900F900F90DF91CF91089544
S1130C6081E00E94B30408951F93CF93DF93CDB71F
S1130C70DEB72A970FB6F894DEBF0FBECDBF61155D
S1130C80710581059105C1F480E30E9472052AC0B3
S1130C902AE030E040E050E00E94A209E1E0F0E008
S1130CA0EC0FFD1FE10FF11D605D60831F5F622F7C
S1130CB0732F842F952F01C010E0611571058105F4
S1130CC0910531F70DC0E12FF0E0319781E090E01C
S1130CD08C0F9D1FE80FF91F80810E94720511502F
S1130CE01111F1CF2A960FB6F894DEBF0FBECDBF17
S1130CF0DF91CF911F9108950E94B3030E943E0398
S1130D00FDCF833038F5813089F048F08230A1F48A
S1130D1087B1806487B987B1806887B90DC087B10E
S1130D208F7B87B987B18F7787B906C087B1806415
S1130D3087B987B18F7787B986B1887F86B96830DC
S1130D4058F4677086B1682B66B986B1806886B935
S1130D5082E0089580E0089581E00895789497B141
S1130D60907E97B9883070F497B1907E97B997B117
S1130D70892B87B986B1806486B986B1886086B9C3
S1130D8085E0089589E008951F920F920FB60F929F
S1130D9011242F933F934F935F936F937F938F937C
S1130DA09F93AF93BF9324B135B144E6429FC001F2
S1130DB0439F900D11246FEF73E00E948E0970938E
S1130DC0B4016093B301BF91AF919F918F917F91D3
S1130DD06F915F914F913F912F910F900FBE0F90A4
S1130DE01F9018954423D9F1413009F074C0813023
S1130DF091F028F08230D9F0833029F16EC02AB303
S1130E0081E090E002C0880F991F6A95E2F7822B77
S1130E108ABB80E0089527B381E090E002C0880F88
S1130E20991F6A95E2F7822B87BB80E0089524B36B
S1130E3081E090E002C0880F991F6A95E2F7822B47
S1130E4084BB80E0089521B381E090E002C0880F64
S1130E50991F6A95E2F7822B81BB80E00895813067
S1130E6099F028F08230E9F0833041F138C02AB398
S1130E7081E090E002C0880F991F6A95E2F780959F
S1130E8082238ABB81E0089527B381E090E002C009
S1130E90880F991F6A95E2F78095822387BB81E0CA
S1130EA0089524B381E090E002C0880F991F6A95E9
S1130EB0E2F78095822384BB81E0089521B381E029
S1130EC090E002C0880F991F6A95E2F7809582230B
S1130ED081BB81E0089581E0089581E0089581E077
S1130EE00895853008F07FC0693008F07EC0433033
S1130EF008F07DC04423D9F1413009F07AC0813033
S1130F0091F028F08230D9F0833029F174C02BB3EA
S1130F1081E090E002C0880F991F6A95E2F7822B66
S1130F208BBB80E0089528B381E090E002C0880F75
S1130F30991F6A95E2F7822B88BB80E0089525B358
S1130F4081E090E002C0880F991F6A95E2F7822B36
S1130F5085BB80E0089522B381E090E002C0880F51
S1130F60991F6A95E2F7822B82BB80E00895813055
S1130F7099F028F08230E9F0833041F13EC02BB380
S1130F8081E090E002C0880F991F6A95E2F780958E
S1130F9082238BBB81E0089528B381E090E002C0F6
S1130FA0880F991F6A95E2F78095822388BB81E0B8
S1130FB0089525B381E090E002C0880F991F6A95D7
S1130FC0E2F78095822385BB81E0089522B381E016
S1130FD090E002C0880F991F6A95E2F780958223FA
S1130FE082BB81E0089581E0089581E0089581E065
S1130FF0089581E0089581E0089581E008958530A1
S113100008F05BC0693008F05AC08130D1F028F094
S1131010823059F18330E9F154C089B390E0062E4F
S113102002C0959587950A94E2F78170FA0180834E
S113103089B390E002C0959587956A95E2F781702F
S1131040089586B390E0062E02C0959587950A947C
S1131050E2F78170FA01808386B390E002C095952F
S113106087956A95E2F78170089583B390E0062E20
S113107002C0959587950A94E2F78170FA018083FE
S113108083B390E002C0959587956A95E2F78170E5
S1131090089580B390E0062E02C0959587950A9432
S11310A0E2F78170FA01808383B390E002C09595E2
S11310B087956A95E2F78170089581E0089581E04B
S11310C0089581E00895853020F4693020F081E0AE
S11310D0089581E0089580E00895FC0195B59F7717
S11310E095BD2081223028F0293019F0283009F0EC
S11310F053C085B530E0220F331F220F331F220F58
S1131100331F877B282B25BD8181883008F040C0A0
S113111095B5987F892B85BD8081811106C0828118
S113112084BD89B7806489BF39C08130B9F48481B2
S1131130843080F425B530E1839FC0011124922FBF
S11311409F7C892B85BD14BC838183BD89B780684E
S113115089BF24C082E08093B60120C08930F1F4B5
S11311608581843088F425B530E1839FC001112442
S1131170922F9F7C892B85BD14BC13BC828184BDB6
S113118089B7806489BF0AC083E08093B60106C032
S113119081E08093B60102C01092B6018091B6013D
S11311A0811181E00895FC018081873008F05CC0E2
S11311B08181853008F05AC09281943008F058C07B
S11311C09381953008F056C0813039F180F0823037
S11311D019F08330B9F02CC083B7886083BF83B71C
S11311E08F7B83BF83B7806883BF80E022C083B7CF
S11311F08F7B83BF83B7877F83BF83B7806883BFB9
S113120080E017C083B7886083BF83B7806483BFDF
S113121083B78F7783BF80E00CC083B7877F83BF9A
S113122083B7806483BF83B78F7783BF80E001C0B7
S113123081E095819CBF23B79081922B93BF43B7E4
S1131240938150E1959F90011124242B23BF928117
S1131250992329F0789429B79281922B99BF22B7C8
S11312609481922B92BF089581E0089581E00895BE
S113127081E0089581E008958CBF80E008951F9275
S11312800F920FB60F9211248F939F938091A60112
S11312909091A70101969093A7018093A6014F977F
S11312A041F49BB380E289278BBB1092A701109273
S11312B0A6019F918F910F900FBE0F901F901895CC
S11312C09093A9018093A80108951F920F920FB6DD
S11312D00F9211242F933F934F935F936F937F93B8
S11312E08F939F93AF93BF93EF93FF93E091A801E4
S11312F0F091A901309709F00995FF91EF91BF9101
S1131300AF919F918F917F916F915F914F913F9199
S11313102F910F900FBE0F901F901895AA1BBB1B07
S113132051E107C0AA1FBB1FA617B70710F0A61BE1
S1131330B70B881F991F5A95A9F780959095BC0102
S1131340CD010895A1E21A2EAA1BBB1BFD010DC0FD
S1131350AA1FBB1FEE1FFF1FA217B307E407F50761
S113136020F0A21BB30BE40BF50B661F771F881F3D
S1131370991F1A9469F760957095809590959B01D3
S1131380AC01BD01CF010895FC0188279927E89499
S113139021912032E9F3293010F02E30C8F32B329A
S11313A041F02D3239F4689404C00E94E209820F9E
S11313B0911D219120532A30C0F31EF490958195FC
S11313C09F4F08957AE0979F902D879F802D910DD0
S10B13D011240895F894FFCFE5
S11313D80501FFFFFFFFFFFFFFFFFFFFFFFF75741E
S11313E8696D6572732066756C6C00456E74657200
S11313F820616C61726D2074696D65203A0030302B
S11314083A303000696E76616C69640073756363A1
S1131418657373002020202020414C41524D2054F4
S1131428494D452020202020004C696768742062BB
S11314387269676874656E696E672E2E2E002020A7
S11314482020476F6F64204D6F726E696E6720208D
S113145820202000202020202020202020202020A0
S113146820202020202020200042757A7A657220CE
S113147877696C6C207475726E206F6E20696E20AB
S11314880020202020202042757A7A6572204F6E31
S113149820202020200020202053756E7269736557
S11314A820416C61726D2020202000202B203A20DE
S11314B853657420416C61726D00202D203A2043DD
S11314C8616E63656C20416C61726D00202A203A5C
S11314D82053686F7720416C61726D7320005468E3
S11314E8652072756E6E696E672074696D657273B6
S11314F83A00303A4261636B0005040302070605AB
S1131508033132332B3435362D3738392A403023DA
S10515183D0090
S9030000FC
