S015000053756E726973655F616C61726D2E73726563BA
S11300000C942A000C9447000C9447000C9447006D
S11300100C9447000C947F080C9447000C94470000
S11300200C9447000C9447000C9447000C94590816
S11300300C9447000C9447000C9447000C94470020
S11300400C945B060C9447000C9447000C944700F6
S11300500C94470011241FBECFE5D8E0DEBFCDBF0E
S113006011E0A0E6B0E0ECE0F2E102C005900D92F0
S1130070A63AB107D9F721E0A6EAB1E001C01D9282
S1130080AB3BB207E1F70E9428060C9404090C94D8
S113009000008091B4019091B50101969093B5014F
S11300A08093B4018091B4019091B501CE9778F01A
S11300B08091A8019091A90101969093A901809340
S11300C0A80186EF84BD1092B5011092B40180910D
S11300D0A8019091A901CC9768F08091A601909114
S11300E0A70101969093A7018093A6011092A901FC
S11300F01092A80108958F929F92AF92BF92CF92CF
S1130100DF92EF92FF9240E050E02091B60130E0A0
S1130110421753074CF5FC0160E070E0241B350BDB
S113012062177307F4F4B281A681BA1734F0BA13D4
S113013014C0B381A781BA1784F4C080D180E2804F
S1130140F38084809580A680B78080829182A28289
S1130150B382C482D582E682F7826F5F7F4F349682
S1130160DFCF4F5F5F4FD1CFFF90EF90DF90CF9005
S1130170BF90AF909F908F900895EF92FF920F934E
S11301801F93CF93DF93CDB7DEB728970FB6F894BC
S1130190DEBF0FBECDBF18861F82CE0101967C0143
S11301A086E0F70111928A95E9F78091B6018330D0
S11301B028F00E94C70583E790E064C060E080E017
S11301C00E949A058FE790E00E94840567E081E031
S11301D00E949A0582E990E00E94840567E081E02C
S11301E00E949A0500916E0010E00D33E1F00E9428
S11301F0D2038111FCCF00916E00F701E10FF11DD4
S11302000083802F0E9405051F5F123029F46AE0E5
S113021081E00E949A05E9CF153038F367E081E068
S11302200E949A05E1CF89818F838A818887CE01D4
S113023007960E94DE0897FD1FC0CE0107960E9414
S1130240DE08CC97CCF40091B60110E0CE010796FD
S11302500E94DE08000F111F000F111FF801EE5954
S1130260FF4F81838B818F838C818887CE01079692
S11302700E94DE0897FF0AC060E083E00E949A05AE
S113028088E990E00E94840580E043C0CE0107968F
S11302900E94DE08CC9784F70091B60110E0CE01ED
S11302A007960E94DE08000F111F000F111FF801AE
S11302B0EE59FF4F80833091B6018091A601909151
S11302C0A70124E0329FF0011124EE59FF4F218150
S11302D0280F22838091A8019091A9019081890F10
S11302E08D3314F4838305C08C53838381E0820FA0
S11302F082833F5F3093B60160E083E00E949A05F9
S113030080EA90E00E94840582E690E00E947B00EF
S113031081E028960FB6F894DEBF0FBECDBFDF9103
S1130320CF911F910F91FF90EF9008959FEF980F39
S11303309330B0F494E0899FF0011124E25AFF4F06
S11303408FEF818380838383828382E690E00E949F
S11303507B008091B60181508093B60182E00895BC
S113036083E0089580E00E94490660E083E00E94F3
S11303709A056091B7017091B80180E090E00E9405
S1130380CA0581E02091B7013091B80123333105CA
S113039008F480E00895CF93DF930E94C70560E0DE
S11303A080E00E949A0588EA90E00E94840560E05B
S11303B082E00E949A058DEB90E00E948405C2E0E1
S11303C00E94B20181115AC08C2F0E945608CF5F3F
S11303D0CD3FB1F760E082E00E949A0588EE90E09C
S11303E00E94840560E082E00E949A058DEF90E00F
S11303F00E948405C091A801D091A901C95FD0E0F1
S11304008091A8019091A901C817D90780F480911F
S1130410A8019091A901BE01681B790B80E090E0CE
S11304200E94CA050E94B201882351F327C060E0EC
S113043082E00E949A0588EE90E00E94840560E0C4
S113044082E00E949A0585E191E00E94840580E0A3
S11304500E9480030E94B2018823E1F38091A801E5
S11304609091A901895F90E02091A8013091A901A0
S113047082179307C8F380E00E948D030E94C7058A
S113048082ED90E0DF91CF910C948405E2E6F0E0F8
S11304902EE630E04091A6015091A7018281082EFA
S11304A0000C990B8417950759F44091A8015091B9
S11304B0A9018381082E000C990B8417950731F04C
S11304C034962E173F0731F785E004C081E00E947F
S11304D0960181E08093600008950E94C70560E062
S11304E080E00E949A058AE291E00E94840560E01F
S11304F081E00E949A058FE391E00E94840560E008
S113050082E00E949A058EE491E00E94840560E0F6
S113051083E00E949A0580E691E00E94840563E1ED
S113052083E00C949A05CF92DF92EF92FF92CF93DF
S1130530DF930E94C70582E791E00E948405C2E62A
S1130540D0E0C12CD12C760196018FEFC81AD80ABD
S1130550E80AF80A8091B60190E02817390724F5D3
S113056060E08C2D0E949A05C701B6010E94CA055D
S11305708DE20E94050563E08C2D0E949A056A8134
S1130580062E000C770B880B990B0E94CA058AE390
S11305900E9405056B81062E000C770B880B990BC6
S11305A00E94CA052496D0CF6EE083E00E949A058B
S11305B086E891E00E94840510926100DF91CF915A
S11305C0FF90EF90DF90CF9008958091610081308B
S11305D0C1F00E94C7050E94D20380916E0080334F
S11305E0C9F481E08093610043C00E946D020E94BF
S11305F0D20380916E0096ED980F923050F38D32B5
S113060041F30E94460280916000813071F70E949C
S1130610CB01EBCF8B3239F08D3281F08A3241F548
S11306200E94930202C00E94BD000E944602809173
S113063060008130E9F40E94CB011AC085E7809301
S11306406E000E94D20380916E008537D1F381330E
S113065011F481E007C0823311F482E003C08333D4
S113066019F483E00E94960185E780936E00DDCF44
S11306700E94460280916000813011F40C94CB01F9
S11306800895CF93DF9300D000D000D0CDB7DEB76C
S11306900E94C50441E063E081E00E948906CE0126
S11306A0019626E0FC0111922A95E9F727E02A83B6
S11306B027EF2B830E94AA070E949A0367E081E038
S11306C00E942D06EEEAF1E085E0808383E08183D9
S11306D0128282E0838315821482CF010E94020871
S11306E089E490E00E947A088FB780688FBF2696CD
S11306F00FB6F894DEBF0FBECDBFDF91CF91089542
S1130700823048F4811107C041E066E082E00E9433
S1130710F30680E0089581E00895823048F4811161
S113072007C040E066E082E00E94F30680E008959E
S113073081E0089540E067E083E00E94890640E09C
S113074066E083E00E94890640E065E083E00E9461
S1130750890640E063E083E00E94890640E065E0AA
S113076082E00E94890640E064E082E00E948906FB
S113077040E063E082E00E94890640E062E082E0BB
S11307800E94890665E082E00E94A10764E082E09D
S11307900E94A10763E082E00E94A10762E082E078
S11307A00C94A1078F929F92AF92BF92CF92DF9247
S11307B0EF92FF920F931F93CF93DF931F92CDB7C6
S11307C0DEB72DE8A22E21E0B22E00E010E0F50104
S11307D0F1905F0141E06F2D82E00E94890640E0C4
S11307E06F2D82E00E94F30691E9892E91E0992E03
S11307F0C12CD12CF401E1904F01AE014F5F5F4F4A
S11308006E2D83E00E946607898181111EC0898153
S1130810811108C0AE014F5F5F4F6E2D83E00E94CF
S11308206607F5CF40E06F2D82E00E948906F8014B
S1130830EE0FFF1FEE0FFF1FEB56FE4FEC0DFD1DDD
S1130840808180936E0080E013C0FFEFCF1ADF0A2F
S113085084E0C816D10471F640E06F2D82E00E9456
S113086089060F5F1F4F0430110509F0B0CF81E0F6
S11308700F90DF91CF911F910F91FF90EF90DF9038
S1130880CF90BF90AF909F908F900895CF93C82F33
S113089040E063E080E00E94F3068FE99FE0019767
S11308A0F1F700C00000C4FB442740F960E081E098
S11308B00E94F306C5FB442740F961E081E00E94F1
S11308C0F306C6FB442740F962E081E00E94F30688
S11308D04C2F441F4427441F64E081E00E94F30628
S11308E08FE99FE00197F1F700C0000041E062E06A
S11308F080E00E94F3068FE99FE00197F1F700C0C2
S1130900000040E062E080E00E94F3068FE99FE08F
S11309100197F1F700C000004C2F417060E081E0C6
S11309200E94F306C1FB442740F961E081E00E9484
S1130930F306C2FB442740F962E081E00E94F3061B
S1130940C3FB442740F964E081E00E94F3068FE989
S11309509FE00197F1F700C0000041E062E080E011
S11309600E94F3068FE99FE00197F1F700C00000B1
S113097040E062E080E00E94F3068FE19EE401978C
S1130980F1F700C00000CF91089541E063E080E0FA
S11309900E94890641E062E080E00E94890641E00D
S11309A060E081E00E94890641E061E081E00E940C
S11309B0890641E062E081E00E94890641E064E04A
S11309C081E00E9489068FE99FE00197F1F700C05A
S11309D0000088E20E9446048FE99FE00197F1F746
S11309E000C0000081E00E9446048FE99FE0019767
S11309F0F1F700C000008FE00E9446048FE99FE0F9
S1130A000197F1F700C000000895CF93C82F41E08B
S1130A1063E080E00E94F3068FE99FE00197F1F71D
S1130A2000C00000C4FB442740F960E081E00E945C
S1130A30F306C5FB442740F961E081E00E94F30618
S1130A40C6FB442740F962E081E00E94F3064C2F84
S1130A50441F4427441F64E081E00E94F3068FE9A9
S1130A609FE00197F1F700C0000041E062E080E000
S1130A700E94F3068FE99FE00197F1F700C00000A0
S1130A8040E062E080E00E94F3068FE99FE0019776
S1130A90F1F700C000004C2F417060E081E00E943B
S1130AA0F306C1FB442740F961E081E00E94F306AC
S1130AB0C2FB442740F962E081E00E94F306C3FBD5
S1130AC0442740F964E081E00E94F3068FE99FE047
S1130AD00197F1F700C0000041E062E080E00E946D
S1130AE0F3068FE99FE00197F1F700C0000040E0B2
S1130AF062E080E00E94F3068FE19EE40197F1F743
S1130B0000C00000CF9108950F931F93CF93DF93FC
S1130B10EC018C010B5E1F4F8991882331F00E94F8
S1130B200505C017D107C1F781E0DF91CF911F916F
S1130B300F9108950F931F93CF93DF9300D000D0AC
S1130B40CDB7DEB78530B8F46531B8F400916F00E5
S1130B5010917000209171003091720009831A8302
S1130B602B833C83FE01E80FF11D8181860F0E94D7
S1130B70460480E003C082E001C083E00F900F9040
S1130B800F900F90DF91CF911F910F91089581E005
S1130B900C9446048F929F92AF92BF92EF92FF9271
S1130BA01F93CF93DF93CDB7DEB72A970FB6F89490
S1130BB0DEBF0FBECDBF611571058105910591F4AE
S1130BC080E32A960FB6F894DEBF0FBECDBFDF9147
S1130BD0CF911F91FF90EF90BF90AF909F908F9017
S1130BE00C94050510E03AE0832E912CA12CB12C35
S1130BF0EE24E394F12CEC0EFD1EE10EF11CA50194
S1130C0094010E94BC08605DF70160831F5FB90115
S1130C10CA01611571058105910551F7112341F050
S1130C20FE01E10FF11D80810E9405051150F6CFF0
S1130C302A960FB6F894DEBF0FBECDBFDF91CF91D9
S1130C401F91FF90EF90BF90AF909F908F90089569
S1130C500E9441030E94E502FDCF8330B0F481304D
S1130C6039F0823019F43E9A3F9A04C03E9801C08C
S1130C703E9A3F9886B1887F86B9683040F486B141
S1130C80682B66B9379A82E0089580E0089581E080
S1130C900895789497B1907E97B9883050F497B1BD
S1130CA0907E97B997B1892B87B9369A339A85E0A4
S1130CB0089589E008951F920F920FB60F921124A0
S1130CC02F933F934F935F936F937F938F939F9350
S1130CD0AF93BF9324B135B144E6429FC001439F13
S1130CE0900D11246FEF73E00E94A8087093B8016F
S1130CF06093B701BF91AF919F918F917F916F9155
S1130D005F914F913F912F910F900FBE0F901F90C5
S1130D1018954423A1F1413009F063C08130D1F02A
S1130D2078F0823009F1833009F05BC021B381E0AF
S1130D3090E001C0880F6A95EAF7822B81BB1DC041
S1130D402AB381E090E001C0880F6A95EAF7822B0C
S1130D508ABB13C027B381E090E001C0880F6A9575
S1130D60EAF7822B87BB09C024B381E090E001C07D
S1130D70880F6A95EAF7822B84BB80E0089581305E
S1130D80D9F078F0823019F1833059F521B381E03C
S1130D9090E001C0880F6A95EAF78095822381BBB1
S1130DA020C02AB381E090E001C0880F6A95EAF779
S1130DB0809582238ABB15C027B381E090E001C0EF
S1130DC0880F6A95EAF78095822387BB0AC024B30B
S1130DD081E090E001C0880F6A95EAF7809582234C
S1130DE084BB81E00895853008F06EC0693008F056
S1130DF06BC0433008F068C04423A1F1413009F0CE
S1130E0063C08130D1F078F0823009F1833009F089
S1130E105BC022B381E090E001C0880F6A95EAF7D5
S1130E20822B82BB1DC02BB381E090E001C0880FF0
S1130E306A95EAF7822B8BBB13C028B381E090E05C
S1130E4001C0880F6A95EAF7822B88BB09C025B3D5
S1130E5081E090E001C0880F6A95EAF7822B85BB98
S1130E6080E008958130D9F078F0823019F1833030
S1130E7059F522B381E090E001C0880F6A95EAF742
S1130E808095822382BB20C02BB381E090E001C017
S1130E90880F6A95EAF7809582238BBB15C028B327
S1130EA081E090E001C0880F6A95EAF7809582237B
S1130EB088BB0AC025B381E090E001C0880F6A9521
S1130EC0EAF78095822385BB81E00895FA01853095
S1130ED0B0F56930A0F5813099F030F08230E1F05E
S1130EE0833069F580B319C089B390E0062E02C03F
S1130EF0959587950A94E2F78170808389B317C02A
S1130F0086B390E0062E02C0959587950A94E2F781
S1130F108170808386B30BC083B390E0062E02C039
S1130F20959587950A94E2F78170808383B390E066
S1130F3002C0959587956A95E2F78170089581E0DE
S1130F400895853028F481E0693018F480E008952C
S1130F5081E00895FC0185B58F7785BD9081892F47
S1130F60877F823008F045C085B5282F277B38E07D
S1130F70939FC0011124822B85BD81818830A8F5FF
S1130F8095B5987F892B85BD8081882331F1813087
S1130F90A1F49481943078F485B5282F2F7C30E126
S1130FA0939FC0011124822B85BD14BC838183BD12
S1130FB089B7806816C082E019C08930E1F4958150
S1130FC0943088F485B5282F2F7C30E1939FC0019D
S1130FD01124822B85BD14BC13BC828184BD89B7C6
S1130FE0806489BF08C083E001C081E08093BA01B6
S1130FF002C01092BA0181E09091BA01911101C02E
S113100080E00895FC018081873008F04DC0818123
S1131010853008F049C09281943008F045C093812E
S1131020953008F041C08130B9F068F0823029F081
S11310308330E9F483B7886011C083B7886083BFC5
S113104083B78F7B05C083B78F7B83BF83B7877FCD
S113105083BF83B7806808C083B7877F83BF83B7A4
S1131060806483BF83B78F7783BF90E001C091E032
S113107085818CBF23B78081822B83BF43B7838153
S113108050E1859F90011124242B23BF8281882362
S113109029F0789429B78281822B89BF22B7848171
S11310A0822B82BF892F089581E008958CBF80E050
S11310B008951F920F920FB60F9211248F939F934E
S11310C08091AA019091AB0101969093AB0180931A
S11310D0AA014F9741F49BB380E289278BBB1092FE
S11310E0AB011092AA019F918F910F900FBE0F90A8
S11310F01F9018959093AD018093AC0108951F92B1
S11311000F920FB60F9211242F933F934F935F9337
S11311106F937F938F939F93AF93BF93EF93FF93BB
S1131120E091AC01F091AD01309709F00995FF9180
S1131130EF91BF91AF919F918F917F916F915F914B
S11311404F913F912F910F900FBE0F901F901895C4
S1131150AA1BBB1B51E107C0AA1FBB1FA617B707D9
S113116010F0A61BB70B881F991F5A95A9F78095F5
S11311709095BC01CD010895A1E21A2EAA1BBB1BB8
S1131180FD010DC0AA1FBB1FEE1FFF1FA217B3074F
S1131190E407F50720F0A21BB30BE40BF50B661F65
S11311A0771F881F991F1A9469F760957095809529
S11311B090959B01AC01BD01CF010895FC018827E6
S11311C09927E89421912032E9F3293010F02E3048
S11311D0C8F32B3241F02D3239F4689404C00E94D4
S11311E0FC08820F911D219120532A30C0F31EF474
S11311F0909581959F4F08957AE0979F902D879FB2
S10F1200802D910D11240895F894FFCF67
S113120C0501FFFFFFFFFFFFFFFFFFFFFFFF7580DF
S113121CC094D474696D6572732066756C6C0045EA
S113122C6E74657220616C61726D2074696D6520D9
S113123C3A0030303A303000696E76616C69640083
S113124C73756363657373002020202020414C4127
S113125C524D2054494D452020202020004C6967D4
S113126C687420627269676874656E696E672E2E85
S113127C2E0020202020476F6F64204D6F726E6902
S113128C6E672020202020002020202020202020D9
S113129C2020202020202020202020200042757A8D
S11312AC7A65722077696C6C207475726E206F6E1F
S11312BC20696E200020202020202042757A7A6537
S11312CC72204F6E20202020200020202053756E89
S11312DC7269736520416C61726D2020202000209E
S11312EC2B203A2053657420416C61726D00202DC3
S11312FC203A2043616E63656C20416C61726D0011
S113130C202A203A2053686F7720416C61726D73E8
S113131C20005468652072756E6E696E672074695E
S113132C6D6572733A00303A4261636B00050403D5
S113133C02070605033132332B3435362D37383951
S109134C2A4030233D009D
S9030000FC
