S015000053756E726973655F616C61726D2E73726563BA
S11300000C942A000C9447000C9447000C9447006D
S11300100C9447000C9465080C9447000C9447001A
S11300200C9447000C9447000C9447000C943F0830
S11300300C9447000C9447000C9447000C94470020
S11300400C9441060C9447000C9447000C94470010
S11300500C94470011241FBECFE5D8E0DEBFCDBF0E
S113006011E0A0E6B0E0E8EDF1E102C005900D92E8
S1130070A63AB107D9F721E0A6EAB1E001C01D9282
S1130080AB3BB207E1F70E940E060C94EA080C940D
S113009000008091B4019091B50101969093B5014F
S11300A08093B4018091B4019091B501CE9778F01A
S11300B08091A8019091A90101969093A901809340
S11300C0A80186EF84BD1092B5011092B40180910D
S11300D0A8019091A901CC9768F08091A601909114
S11300E0A70101969093A7018093A6011092A901FC
S11300F01092A80108958F929F92AF92BF92CF92CF
S1130100DF92EF92FF9240E050E02091B60130E0A0
S1130110421753074CF5FC0160E070E0241B350BDB
S113012062177307F4F4B281A681BA1734F0BA13D4
S113013014C0B381A781BA1784F4C080D180E2804F
S1130140F38084809580A680B78080829182A28289
S1130150B382C482D582E682F7826F5F7F4F349682
S1130160DFCF4F5F5F4FD1CFFF90EF90DF90CF9005
S1130170BF90AF909F908F900895CF92DF92FF929F
S11301800F931F93CF93DF93CDB7DEB728970FB6A6
S1130190F894DEBF0FBECDBF18861F82CE01019634
S11301A06C0186E0F60111928A95E9F78091B60117
S11301B0833028F00E94AD0583E790E05BC060E0E7
S11301C080E00E9480058FE790E00E946A0567E066
S11301D081E00E94800582E990E00E946A0567E060
S11301E081E00E94800500916E0010E00D33E1F083
S11301F00E94B8038111FCCF00916E00F601E10F5B
S1130200F11D0083802F0E94EB041F5F123029F43C
S11302106AE081E00E948005E9CF153038F367E099
S113022081E00E948005E1CF89818F838A8188875C
S1130230CE0107960E94C4086C01CC97A8F4F090F4
S1130240B60184E0F89E800111240E591F4FF80175
S1130250C1828B818F838C818887CE0107960E940F
S1130260C4088C33910550F060E083E00E9480055F
S113027088E990E00E946A0580E026C0F801808346
S11302804091A6015091A7014C0D42832091A801F1
S11302903091A901280F2D3314F4238305C02C5366
S11302A0F80123834F5F4283F394F092B60160E038
S11302B083E00E94800580EA90E00E946A0582E65D
S11302C090E00E947B0081E028960FB6F894DEBF90
S11302D00FBECDBFDF91CF911F910F91FF90DF90A3
S11302E0CF9008959FEF980F9330B0F494E0899FD6
S11302F0F0011124E25AFF4F8FEF818380838383BF
S1130300828382E690E00E947B008091B601815056
S11303108093B60182E0089583E0089580E00E940E
S11303202F0660E083E00E9480056091B701709120
S1130330B80180E090E00E94B00581E02091B7010F
S11303403091B8012333310508F480E00895CF9348
S1130350DF930E94AD0560E080E00E94800588EA9A
S113036090E00E946A0560E082E00E9480058DEBC7
S113037090E00E946A05C2E00E948E0181115AC079
S11303808C2F0E943C08CF5FCD3FB1F760E082E044
S11303900E94800588EE90E00E946A0560E082E099
S11303A00E9480058DEF90E00E946A05C091A8012B
S11303B0D091A901C95FD0E08091A8019091A901D1
S11303C0C817D90780F48091A8019091A901BE01B2
S11303D0681B790B80E090E00E94B0050E948E01BA
S11303E0882351F327C060E082E00E94800588EEF4
S11303F090E00E946A0560E082E00E94800585E149
S113040091E00E946A0580E00E9466030E948E01CA
S11304108823E1F38091A8019091A901895F90E07C
S11304202091A8013091A90182179307C8F380E0B5
S11304300E9473030E94AD0582ED90E0DF91CF919D
S11304400C946A05E2E6F0E02EE630E04091A60165
S11304505091A7018281082E000C990B84179507EF
S113046059F44091A8015091A9018381082E000CF0
S1130470990B8417950731F034962E173F0731F7FF
S113048085E004C081E00E94720181E080936000F5
S113049008950E94AD0560E080E00E9480058AE234
S11304A091E00E946A0560E081E00E9480058FE38C
S11304B091E00E946A0560E082E00E9480058EE47B
S11304C091E00E946A0560E083E00E94800580E676
S11304D091E00E946A0563E183E00C948005CF9269
S11304E0DF92EF92FF92CF93DF930E94AD0582E7F4
S11304F091E00E946A05C2E6D0E0C12CD12C7601BD
S113050096018FEFC81AD80AE80AF80A8091B60152
S113051090E02817390724F560E08C2D0E948005AF
S1130520C701B6010E94B0058DE20E94EB0463E0AE
S11305308C2D0E9480056A81062E000C770B880B97
S1130540990B0E94B0058AE30E94EB046B81062E8E
S1130550000C770B880B990B0E94B0052496D0CF22
S11305606EE083E00E94800586E891E00E946A05BF
S113057010926100DF91CF91FF90EF90DF90CF90C8
S1130580089580916100813051F00E94AD05809101
S11305906E008033C9F481E0809361004FC00E94F3
S11305A049020E94220280916000813011F40E946D
S11305B0A7010E94B80380916E0096ED980F9230C7
S11305C020F38D3271F7E1CF8B3239F08D3281F027
S11305D08A32A1F50E946F022DC00E94BD000E94C4
S11305E0220280916000813049F50E94A70126C053
S11305F085E780936E000E94B80380916E00853772
S1130600D1F3813311F481E007C0823311F482E025
S113061003C0833319F483E00E94720185E7809359
S11306206E00DDCF0E94B8030E9422028091600018
S11306308130D9F280916E008033A1F70E942202AA
S113064080916000813011F40C94A7010895CF9338
S1130650DF9300D000D000D0CDB7DEB70E94AB044A
S113066041E063E081E00E946F06CE01019626E03E
S1130670FC0111922A95E9F727E02A8327EF2B83BF
S11306800E9490070E94800367E081E00E941306A5
S1130690EEEAF1E085E0808383E08183128282E0E8
S11306A0838315821482CF010E94E80789E490E0D5
S11306B00E9460088FB780688FBF26960FB6F894A3
S11306C0DEBF0FBECDBFDF91CF910895823048F4D5
S11306D0811107C041E066E082E00E94D90680E013
S11306E0089581E00895823048F4811107C040E004
S11306F066E082E00E94D90680E0089581E00895D2
S113070040E067E083E00E946F0640E066E083E03B
S11307100E946F0640E065E083E00E946F0640E0BF
S113072063E083E00E946F0640E065E082E00E949F
S11307306F0640E064E082E00E946F0640E063E000
S113074082E00E946F0640E062E082E00E946F0651
S113075065E082E00E94870764E082E00E948707E8
S113076063E082E00E94870762E082E00C948707DE
S11307708F929F92AF92BF92CF92DF92EF92FF92AD
S11307800F931F93CF93DF931F92CDB7DEB72DE85E
S1130790A22E21E0B22E00E010E0F501F1905F01FD
S11307A041E06F2D82E00E946F0640E06F2D82E0F1
S11307B00E94D90691E9892E91E0992EC12CD12C61
S11307C0F401E1904F01AE014F5F5F4F6E2D83E066
S11307D00E944C07898181111EC08981811108C042
S11307E0AE014F5F5F4F6E2D83E00E944C07F5CF43
S11307F040E06F2D82E00E946F06F801EE0FFF1FAC
S1130800EE0FFF1FEB56FE4FEC0DFD1D8081809314
S11308106E0080E013C0FFEFCF1ADF0A84E0C81631
S1130820D10471F640E06F2D82E00E946F060F5FE5
S11308301F4F0430110509F0B0CF81E00F90DF9114
S1130840CF911F910F91FF90EF90DF90CF90BF90C9
S1130850AF909F908F900895CF93C82F40E063E0AE
S113086080E00E94D9068FE99FE00197F1F700C06C
S11308700000C4FB442740F960E081E00E94D906EF
S1130880C5FB442740F961E081E00E94D906C6FB1C
S1130890442740F962E081E00E94D9064C2F441FAE
S11308A04427441F64E081E00E94D9068FE99FE059
S11308B00197F1F700C0000041E062E080E00E948F
S11308C0D9068FE99FE00197F1F700C0000040E0EE
S11308D062E080E00E94D9068FE99FE00197F1F77A
S11308E000C000004C2F417060E081E00E94D906F6
S11308F0C1FB442740F961E081E00E94D906C2FBB4
S1130900442740F962E081E00E94D906C3FB4427F2
S113091040F964E081E00E94D9068FE99FE00197E5
S1130920F1F700C0000041E062E080E00E94D906D7
S11309308FE99FE00197F1F700C0000040E062E01A
S113094080E00E94D9068FE19EE40197F1F700C090
S11309500000CF91089541E063E080E00E946F06BB
S113096041E062E080E00E946F0641E060E081E0E7
S11309700E946F0641E061E081E00E946F0641E061
S113098062E081E00E946F0641E064E081E00E9441
S11309906F068FE99FE00197F1F700C0000088E23D
S11309A00E942C048FE99FE00197F1F700C000003A
S11309B081E00E942C048FE99FE00197F1F700C0C9
S11309C000008FE00E942C048FE99FE00197F1F76B
S11309D000C000000895CF93C82F41E063E080E099
S11309E00E94D9068FE99FE00197F1F700C000004B
S11309F0C4FB442740F960E081E00E94D906C5FBAE
S1130A00442740F961E081E00E94D906C6FB4427EF
S1130A1040F962E081E00E94D9064C2F441F44272C
S1130A20441F64E081E00E94D9068FE99FE00197AA
S1130A30F1F700C0000041E062E080E00E94D906C6
S1130A408FE99FE00197F1F700C0000040E062E009
S1130A5080E00E94D9068FE99FE00197F1F700C07A
S1130A6000004C2F417060E081E00E94D906C1FB78
S1130A70442740F961E081E00E94D906C2FB442783
S1130A8040F962E081E00E94D906C3FB442740F9A3
S1130A9064E081E00E94D9068FE99FE00197F1F7B5
S1130AA000C0000041E062E080E00E94D9068FE9C6
S1130AB09FE00197F1F700C0000040E062E080E0B1
S1130AC00E94D9068FE19EE40197F1F700C000006F
S1130AD0CF9108950F931F93CF93DF93EC018C0173
S1130AE00B5E1F4F8991882331F00E94EB04C017DD
S1130AF0D107C1F781E0DF91CF911F910F91089544
S1130B000F931F93CF93DF9300D000D0CDB7DEB700
S1130B108530B8F46531B8F400916F00109170001D
S1130B20209171003091720009831A832B833C83D6
S1130B30FE01E80FF11D8181860F0E942C0480E0E4
S1130B4003C082E001C083E00F900F900F900F90DC
S1130B50DF91CF911F910F91089581E00C942C04A3
S1130B608F929F92AF92BF92EF92FF921F93CF9377
S1130B70DF93CDB7DEB72A970FB6F894DEBF0FBE6A
S1130B80CDBF611571058105910591F480E32A9625
S1130B900FB6F894DEBF0FBECDBFDF91CF911F918A
S1130BA0FF90EF90BF90AF909F908F900C94EB04C8
S1130BB010E03AE0832E912CA12CB12CEE24E39486
S1130BC0F12CEC0EFD1EE10EF11CA50194010E9416
S1130BD0A208605DF70160831F5FB901CA01611556
S1130BE071058105910551F7112341F0FE01E10FD3
S1130BF0F11D80810E94EB041150F6CF2A960FB6A6
S1130C00F894DEBF0FBECDBFDF91CF911F91FF904F
S1130C10EF90BF90AF909F908F9008950E9427030C
S1130C200E94C102FDCF8330B0F4813039F08230AC
S1130C3019F43E9A3F9A04C03E9801C03E9A3F98E8
S1130C4086B1887F86B9683040F486B1682B66B96E
S1130C50379A82E0089580E0089581E008957894B9
S1130C6097B1907E97B9883050F497B1907E97B938
S1130C7097B1892B87B9369A339A85E0089589E02C
S1130C8008951F920F920FB60F9211242F933F9342
S1130C904F935F936F937F938F939F93AF93BF9380
S1130CA024B135B144E6429FC001439F900D112405
S1130CB06FEF73E00E948E087093B8016093B701E0
S1130CC0BF91AF919F918F917F916F915F914F9160
S1130CD03F912F910F900FBE0F901F9018954423B2
S1130CE0A1F1413009F063C08130D1F078F0823055
S1130CF009F1833009F05BC021B381E090E001C0C9
S1130D00880F6A95EAF7822B81BB1DC02AB381E064
S1130D1090E001C0880F6A95EAF7822B8ABB13C062
S1130D2027B381E090E001C0880F6A95EAF7822B2F
S1130D3087BB09C024B381E090E001C0880F6A95A5
S1130D40EAF7822B84BB80E008958130D9F078F0F3
S1130D50823019F1833059F521B381E090E001C06C
S1130D60880F6A95EAF78095822381BB20C02AB355
S1130D7081E090E001C0880F6A95EAF780958223AC
S1130D808ABB15C027B381E090E001C0880F6A9543
S1130D90EAF78095822387BB0AC024B381E090E000
S1130DA001C0880F6A95EAF78095822384BB81E0AD
S1130DB00895853008F06EC0693008F06BC0433088
S1130DC008F068C04423A1F1413009F063C08130C8
S1130DD0D1F078F0823009F1833009F05BC022B39E
S1130DE081E090E001C0880F6A95EAF7822B82BB0C
S1130DF01DC02BB381E090E001C0880F6A95EAF72B
S1130E00822B8BBB13C028B381E090E001C0880F14
S1130E106A95EAF7822B88BB09C025B381E090E08C
S1130E2001C0880F6A95EAF7822B85BB80E008959C
S1130E308130D9F078F0823019F1833059F522B33A
S1130E4081E090E001C0880F6A95EAF780958223DB
S1130E5082BB20C02BB381E090E001C0880F6A956B
S1130E60EAF7809582238BBB15C028B381E090E01C
S1130E7001C0880F6A95EAF78095822388BB0AC06F
S1130E8025B381E090E001C0880F6A95EAF7809568
S1130E90822385BB81E00895FA018530B0F569307D
S1130EA0A0F5813099F030F08230E1F0833069F5BB
S1130EB080B319C089B390E0062E02C0959587953A
S1130EC00A94E2F78170808389B317C086B390E0F7
S1130ED0062E02C0959587950A94E2F78170808367
S1130EE086B30BC083B390E0062E02C09595879518
S1130EF00A94E2F78170808383B390E002C09595F1
S1130F0087956A95E2F78170089581E008958530A8
S1130F1028F481E0693018F480E0089581E00895B0
S1130F20FC0185B58F7785BD9081892F877F8230BD
S1130F3008F045C085B5282F277B38E0939FC00172
S1130F401124822B85BD81818830A8F595B5987FC1
S1130F50892B85BD8081882331F18130A1F494816E
S1130F60943078F485B5282F2F7C30E1939FC0010D
S1130F701124822B85BD14BC838183BD89B780680D
S1130F8016C082E019C08930E1F49581943088F468
S1130F9085B5282F2F7C30E1939FC0011124822B2B
S1130FA085BD14BC13BC828184BD89B7806489BFAC
S1130FB008C083E001C081E08093BA0102C01092AE
S1130FC0BA0181E09091BA01911101C080E00895C5
S1130FD0FC018081873008F04DC08181853008F0A4
S1130FE049C09281943008F045C09381953008F04F
S1130FF041C08130B9F068F0823029F08330E9F4DF
S113100083B7886011C083B7886083BF83B78F7B41
S113101005C083B78F7B83BF83B7877F83BF83B7C5
S1131020806808C083B7877F83BF83B7806483BF2A
S113103083B78F7783BF90E001C091E085818CBF37
S113104023B78081822B83BF43B7838150E1859F7F
S113105090011124242B23BF8281882329F07894C2
S113106029B78281822B89BF22B78481822B82BFD8
S1131070892F089581E008958CBF80E008951F9220
S11310800F920FB60F9211248F939F938091AA0110
S11310909091AB0101969093AB018093AA014F9775
S11310A041F49BB380E289278BBB1092AB01109271
S11310B0AA019F918F910F900FBE0F901F901895CA
S11310C09093AD018093AC0108951F920F920FB6D7
S11310D00F9211242F933F934F935F936F937F93BA
S11310E08F939F93AF93BF93EF93FF93E091AC01E2
S11310F0F091AD01309709F00995FF91EF91BF91FF
S1131100AF919F918F917F916F915F914F913F919B
S11311102F910F900FBE0F901F901895AA1BBB1B09
S113112051E107C0AA1FBB1FA617B70710F0A61BE3
S1131130B70B881F991F5A95A9F780959095BC0104
S1131140CD010895A1E21A2EAA1BBB1BFD010DC0FF
S1131150AA1FBB1FEE1FFF1FA217B307E407F50763
S113116020F0A21BB30BE40BF50B661F771F881F3F
S1131170991F1A9469F760957095809590959B01D5
S1131180AC01BD01CF010895FC0188279927E8949B
S113119021912032E9F3293010F02E30C8F32B329C
S11311A041F02D3239F4689404C00E94E208820FA1
S11311B0911D219120532A30C0F31EF490958195FE
S11311C09F4F08957AE0979F902D879F802D910DD2
S10B11D011240895F894FFCFE7
S11311D80501FFFFFFFFFFFFFFFFFFFFFFFF758014
S11311E8C094D474696D6572732066756C6C00451F
S11311F86E74657220616C61726D2074696D65200E
S11312083A0030303A303000696E76616C696400B7
S113121873756363657373002020202020414C415B
S1131228524D2054494D452020202020004C696708
S1131238687420627269676874656E696E672E2EB9
S11312482E0020202020476F6F64204D6F726E6936
S11312586E6720202020200020202020202020200D
S11312682020202020202020202020200042757AC1
S11312787A65722077696C6C207475726E206F6E53
S113128820696E200020202020202042757A7A656B
S113129872204F6E20202020200020202053756EBD
S11312A87269736520416C61726D202020200020D2
S11312B82B203A2053657420416C61726D00202DF7
S11312C8203A2043616E63656C20416C61726D0045
S11312D8202A203A2053686F7720416C61726D731D
S11312E820005468652072756E6E696E6720746993
S11312F86D6572733A00303A4261636B000504030A
S113130802070605033132332B3435362D37383985
S10913182A4030233D00D1
S9030000FC
